{
  "contractName": "ItemAccessControl",
  "abi": [
    {
      "constant": true,
      "inputs": [],
      "name": "cfoAddress",
      "outputs": [
        {
          "name": "",
          "type": "address"
        }
      ],
      "payable": false,
      "stateMutability": "view",
      "type": "function"
    },
    {
      "constant": true,
      "inputs": [],
      "name": "ceoAddress",
      "outputs": [
        {
          "name": "",
          "type": "address"
        }
      ],
      "payable": false,
      "stateMutability": "view",
      "type": "function"
    },
    {
      "constant": true,
      "inputs": [],
      "name": "cooAddress",
      "outputs": [
        {
          "name": "",
          "type": "address"
        }
      ],
      "payable": false,
      "stateMutability": "view",
      "type": "function"
    }
  ],
  "bytecode": "0x6060604052341561000f57600080fd5b6101f88061001e6000396000f300606060405260043610610057576000357c0100000000000000000000000000000000000000000000000000000000900463ffffffff1680630519ce791461005c5780630a0f8168146100b1578063b047fb5014610106575b600080fd5b341561006757600080fd5b61006f61015b565b604051808273ffffffffffffffffffffffffffffffffffffffff1673ffffffffffffffffffffffffffffffffffffffff16815260200191505060405180910390f35b34156100bc57600080fd5b6100c4610181565b604051808273ffffffffffffffffffffffffffffffffffffffff1673ffffffffffffffffffffffffffffffffffffffff16815260200191505060405180910390f35b341561011157600080fd5b6101196101a6565b604051808273ffffffffffffffffffffffffffffffffffffffff1673ffffffffffffffffffffffffffffffffffffffff16815260200191505060405180910390f35b600160009054906101000a900473ffffffffffffffffffffffffffffffffffffffff1681565b6000809054906101000a900473ffffffffffffffffffffffffffffffffffffffff1681565b600260009054906101000a900473ffffffffffffffffffffffffffffffffffffffff16815600a165627a7a723058209dcbf52bba99d45c409fd8e58342b13005c8ef1e73438a8b83f0935a4177ec610029",
  "source": "pragma solidity ^0.4.18;\n\nimport './ERC721.sol';\n\n// This contract manages the various addresses and constraints for operations\n//   that can be executed only by specific roles.\ncontract ItemAccessControl {\n    // TODO - actual functionality for setting these\n    // These will not be set yet\n    address public ceoAddress;\n    address public cfoAddress;\n    address public cooAddress;\n\n    modifier onlyCEO() {\n        // TODO - uncomment this \n        // require(msg.sender == ceoAddress);\n        _;\n    }\n}",
  "sourcePath": "/Users/Zac/Documents/Code/GitHub/Ethereum/CryptoCombat/contracts/ItemAccessControl.sol",
  "compiler": {
    "name": "solc",
    "version": "0.4.18+commit.9cf6e910.Emscripten.clang"
  },
  "schemaVersion": "1.0.1",
  "updatedAt": "2018-01-03T01:02:17.821Z"
}