{
  "contractName": "ItemBase",
  "abi": [
    {
      "constant": true,
      "inputs": [],
      "name": "cfoAddress",
      "outputs": [
        {
          "name": "",
          "type": "address"
        }
      ],
      "payable": false,
      "stateMutability": "view",
      "type": "function"
    },
    {
      "constant": true,
      "inputs": [],
      "name": "ceoAddress",
      "outputs": [
        {
          "name": "",
          "type": "address"
        }
      ],
      "payable": false,
      "stateMutability": "view",
      "type": "function"
    },
    {
      "constant": true,
      "inputs": [],
      "name": "getItemCountForOwner",
      "outputs": [
        {
          "name": "",
          "type": "uint256"
        }
      ],
      "payable": false,
      "stateMutability": "view",
      "type": "function"
    },
    {
      "constant": true,
      "inputs": [],
      "name": "getAllItems",
      "outputs": [
        {
          "components": [
            {
              "name": "name",
              "type": "string"
            },
            {
              "name": "dna",
              "type": "uint256"
            }
          ],
          "name": "",
          "type": "tuple[]"
        }
      ],
      "payable": false,
      "stateMutability": "view",
      "type": "function"
    },
    {
      "constant": true,
      "inputs": [],
      "name": "getItemCount",
      "outputs": [
        {
          "name": "count",
          "type": "uint256"
        }
      ],
      "payable": false,
      "stateMutability": "view",
      "type": "function"
    },
    {
      "constant": true,
      "inputs": [],
      "name": "cooAddress",
      "outputs": [
        {
          "name": "",
          "type": "address"
        }
      ],
      "payable": false,
      "stateMutability": "view",
      "type": "function"
    },
    {
      "constant": true,
      "inputs": [
        {
          "name": "",
          "type": "uint256"
        }
      ],
      "name": "items",
      "outputs": [
        {
          "name": "name",
          "type": "string"
        },
        {
          "name": "dna",
          "type": "uint256"
        }
      ],
      "payable": false,
      "stateMutability": "view",
      "type": "function"
    },
    {
      "constant": true,
      "inputs": [
        {
          "name": "_id",
          "type": "uint256"
        }
      ],
      "name": "getItemInfo",
      "outputs": [
        {
          "name": "name",
          "type": "string"
        },
        {
          "name": "dna",
          "type": "uint256"
        }
      ],
      "payable": false,
      "stateMutability": "view",
      "type": "function"
    },
    {
      "constant": true,
      "inputs": [
        {
          "name": "",
          "type": "uint256"
        }
      ],
      "name": "itemIndexToOwner",
      "outputs": [
        {
          "name": "",
          "type": "address"
        }
      ],
      "payable": false,
      "stateMutability": "view",
      "type": "function"
    },
    {
      "anonymous": false,
      "inputs": [
        {
          "indexed": false,
          "name": "from",
          "type": "address"
        },
        {
          "indexed": false,
          "name": "to",
          "type": "address"
        },
        {
          "indexed": false,
          "name": "tokenId",
          "type": "uint256"
        }
      ],
      "name": "Transfer",
      "type": "event"
    }
  ],
  "bytecode": "0x60606040526010600355600354600a0a600455341561001d57600080fd5b6107ec8061002c6000396000f300606060405260043610610099576000357c0100000000000000000000000000000000000000000000000000000000900463ffffffff1680630519ce791461009e5780630a0f8168146100f357806316bddee5146101485780634ba1d6aa146101715780637749cf23146101d6578063b047fb50146101ff578063bfb231d214610254578063de7fe3e714610314578063fe9b1a89146103b7575b600080fd5b34156100a957600080fd5b6100b161041a565b604051808273ffffffffffffffffffffffffffffffffffffffff1673ffffffffffffffffffffffffffffffffffffffff16815260200191505060405180910390f35b34156100fe57600080fd5b610106610440565b604051808273ffffffffffffffffffffffffffffffffffffffff1673ffffffffffffffffffffffffffffffffffffffff16815260200191505060405180910390f35b341561015357600080fd5b61015b610465565b6040518082815260200191505060405180910390f35b341561017c57600080fd5b6101846104ac565b60405180806020018281038252838181518152602001915080516000925b818410156101c557828490602001906020020151815260200192600101926101a2565b925050509250505060405180910390f35b34156101e157600080fd5b6101e96105bd565b6040518082815260200191505060405180910390f35b341561020a57600080fd5b6102126105ca565b604051808273ffffffffffffffffffffffffffffffffffffffff1673ffffffffffffffffffffffffffffffffffffffff16815260200191505060405180910390f35b341561025f57600080fd5b61027560048080359060200190919050506105f0565b60405180806020018381526020018281038252848181546001816001161561010002031660029004815260200191508054600181600116156101000203166002900480156103045780601f106102d957610100808354040283529160200191610304565b820191906000526020600020905b8154815290600101906020018083116102e757829003601f168201915b5050935050505060405180910390f35b341561031f57600080fd5b6103356004808035906020019091905050610622565b6040518080602001838152602001828103825284818151815260200191508051906020019080838360005b8381101561037b578082015181840152602081019050610360565b50505050905090810190601f1680156103a85780820380516001836020036101000a031916815260200191505b50935050505060405180910390f35b34156103c257600080fd5b6103d86004808035906020019091905050610731565b604051808273ffffffffffffffffffffffffffffffffffffffff1673ffffffffffffffffffffffffffffffffffffffff16815260200191505060405180910390f35b600160009054906101000a900473ffffffffffffffffffffffffffffffffffffffff1681565b6000809054906101000a900473ffffffffffffffffffffffffffffffffffffffff1681565b6000600760003373ffffffffffffffffffffffffffffffffffffffff1673ffffffffffffffffffffffffffffffffffffffff16815260200190815260200160002054905090565b6104b4610764565b6005805480602002602001604051908101604052809291908181526020016000905b828210156105b45783829060005260206000209060020201604080519081016040529081600082018054600181600116156101000203166002900480601f0160208091040260200160405190810160405280929190818152602001828054600181600116156101000203166002900480156105925780601f1061056757610100808354040283529160200191610592565b820191906000526020600020905b81548152906001019060200180831161057557829003601f168201915b50505050508152602001600182015481525050815260200190600101906104d6565b50505050905090565b6000600580549050905090565b600260009054906101000a900473ffffffffffffffffffffffffffffffffffffffff1681565b6005818154811015156105ff57fe5b906000526020600020906002020160009150905080600001908060010154905082565b61062a610778565b600061063461078c565b6005805490508410151561064757600080fd5b60058481548110151561065657fe5b9060005260206000209060020201604080519081016040529081600082018054600181600116156101000203166002900480601f0160208091040260200160405190810160405280929190818152602001828054600181600116156101000203166002900480156107085780601f106106dd57610100808354040283529160200191610708565b820191906000526020600020905b8154815290600101906020018083116106eb57829003601f168201915b505050505081526020016001820154815250509050806000015192508060200151915050915091565b60066020528060005260406000206000915054906101000a900473ffffffffffffffffffffffffffffffffffffffff1681565b602060405190810160405280600081525090565b602060405190810160405280600081525090565b604080519081016040528061079f6107ac565b8152602001600081525090565b6020604051908101604052806000815250905600a165627a7a72305820e9a56e626e0c5a919a4dc3f54bd91b4200f43b6211a0e9f56d1669ea26e7b4e60029",
  "source": "pragma solidity ^0.4.18;\n\nimport './ItemAccessControl.sol';\n\n// This is where we define the most fundamental code shared throughout the core\n//   functionality. This includes our main data storage\ncontract ItemBase is ItemAccessControl {\n    /*** EVENTS ***/\n\n    event Transfer(address from, address to, uint256 tokenId);\n    //event Birth(address owner, uint256 itemId, uint256 genes);\n\n    /*** DATA TYPES ***/\n\n    // dna: 0123456789ABCDEF\n    //  0 - type: sword, staff, head, chest etc.\n    //  12 - strength: increases physical attack dmg\n    //  34 - dexterity: increases attack speed\n    //  56 - defense: decreases incoming damage\n    //  78 - speed: increases player speed\n    //  9A - wisdom: increases magic attack dmg\n    //  BC - vitality: increases health regen speed\n    //  DE - skill: skill that this item can use\n    struct Item {\n        string name;\n        uint dna;\n    }\n\n    /*** CONSTANTS ***/\n\n    uint dnaDigits = 16;\n    uint dnaModulus = 10 ** dnaDigits;\n\n    // Array containing Item struct for all items in existence.\n    Item[] public items;\n\n    // item index to an owner's addres\n    mapping (uint => address) public itemIndexToOwner;\n    // count of how many token's an onwer has\n    mapping (address => uint) ownershipTokenCount;\n\n    function _transfer(address _from, address _to, uint _tokenId) internal {\n        ownershipTokenCount[_to] ++;\n        // transfer ownership\n        itemIndexToOwner[_tokenId] = _to;\n        // When creating new kittens, _from is 0x0, but we can't account that address\n        if (_from != address(0)) {\n            ownershipTokenCount[_from] --;\n        }\n        //Emit the transfer event.\n        Transfer(_from, _to, _tokenId);\n    }\n\n    function _createItem(string _name, uint _dna, address _owner) internal returns(uint) {\n        // create the new item and add it to the item list\n        uint newItemId = items.push(Item({\n            name: _name,\n            dna: _dna\n        })) - 1;\n        \n        // Assign ownership and emit the Transfer event\n        _transfer(0, _owner, newItemId);\n\n        return newItemId;\n    }\n\n    function getItemInfo(uint _id) public view returns (\n        string name,\n        uint dna\n    ) {\n        // make sure the id is an actual item\n        require(_id < items.length);\n        // get the item\n        Item memory i = items[_id];\n        // return variables\n        name = i.name;\n        dna = i.dna;\n    }\n\n    function getAllItems() public view returns (\n        Item[]\n    ) {\n        return items;\n    }\n\n    function getItemCount() public view returns (uint count) {\n        return items.length;\n    }\n\n    function getItemCountForOwner() public view returns (uint) {\n        return ownershipTokenCount[msg.sender];\n    }\n    \n}",
  "sourcePath": "/Users/Zac/Documents/Code/GitHub/Ethereum/CryptoCombat/contracts/ItemBase.sol",
  "compiler": {
    "name": "solc",
    "version": "0.4.18+commit.9cf6e910.Emscripten.clang"
  },
  "schemaVersion": "1.0.1",
  "updatedAt": "2018-01-03T21:47:52.456Z"
}