{
  "contractName": "ItemFactory",
  "abi": [
    {
      "constant": true,
      "inputs": [],
      "name": "getItemCountForOwner",
      "outputs": [
        {
          "name": "itemCount",
          "type": "uint256"
        }
      ],
      "payable": false,
      "stateMutability": "view",
      "type": "function"
    },
    {
      "constant": true,
      "inputs": [
        {
          "name": "",
          "type": "uint256"
        }
      ],
      "name": "itemToOwner",
      "outputs": [
        {
          "name": "",
          "type": "address"
        }
      ],
      "payable": false,
      "stateMutability": "view",
      "type": "function"
    },
    {
      "constant": true,
      "inputs": [
        {
          "name": "_id",
          "type": "uint256"
        }
      ],
      "name": "getItem",
      "outputs": [
        {
          "name": "name",
          "type": "string"
        },
        {
          "name": "dna",
          "type": "uint256"
        }
      ],
      "payable": false,
      "stateMutability": "view",
      "type": "function"
    },
    {
      "constant": false,
      "inputs": [
        {
          "name": "_name",
          "type": "string"
        }
      ],
      "name": "createRandomItem",
      "outputs": [],
      "payable": false,
      "stateMutability": "nonpayable",
      "type": "function"
    },
    {
      "constant": true,
      "inputs": [],
      "name": "getAllItems",
      "outputs": [
        {
          "components": [
            {
              "name": "name",
              "type": "string"
            },
            {
              "name": "dna",
              "type": "uint256"
            }
          ],
          "name": "",
          "type": "tuple[]"
        }
      ],
      "payable": false,
      "stateMutability": "view",
      "type": "function"
    },
    {
      "constant": true,
      "inputs": [
        {
          "name": "",
          "type": "uint256"
        }
      ],
      "name": "items",
      "outputs": [
        {
          "name": "name",
          "type": "string"
        },
        {
          "name": "dna",
          "type": "uint256"
        }
      ],
      "payable": false,
      "stateMutability": "view",
      "type": "function"
    }
  ],
  "bytecode": "0x60606040526010600055600054600a0a600155341561001d57600080fd5b6109898061002c6000396000f300606060405260043610610078576000357c0100000000000000000000000000000000000000000000000000000000900463ffffffff16806316bddee51461007d5780631a4d96cd146100a65780633129e773146101095780634b630219146101ac5780634ba1d6aa14610209578063bfb231d21461026e575b600080fd5b341561008857600080fd5b61009061032e565b6040518082815260200191505060405180910390f35b34156100b157600080fd5b6100c76004808035906020019091905050610375565b604051808273ffffffffffffffffffffffffffffffffffffffff1673ffffffffffffffffffffffffffffffffffffffff16815260200191505060405180910390f35b341561011457600080fd5b61012a60048080359060200190919050506103a8565b6040518080602001838152602001828103825284818151815260200191508051906020019080838360005b83811015610170578082015181840152602081019050610155565b50505050905090810190601f16801561019d5780820380516001836020036101000a031916815260200191505b50935050505060405180910390f35b34156101b757600080fd5b610207600480803590602001908201803590602001908080601f016020809104026020016040519081016040528093929190818152602001838380828437820191505050505050919050506104b7565b005b341561021457600080fd5b61021c6104d2565b60405180806020018281038252838181518152602001915080516000925b8184101561025d578284906020019060200201518152602001926001019261023a565b925050509250505060405180910390f35b341561027957600080fd5b61028f60048080359060200190919050506105e3565b604051808060200183815260200182810382528481815460018160011615610100020316600290048152602001915080546001816001161561010002031660029004801561031e5780601f106102f35761010080835404028352916020019161031e565b820191906000526020600020905b81548152906001019060200180831161030157829003601f168201915b5050935050505060405180910390f35b6000600460003373ffffffffffffffffffffffffffffffffffffffff1673ffffffffffffffffffffffffffffffffffffffff16815260200190815260200160002054905090565b60036020528060005260406000206000915054906101000a900473ffffffffffffffffffffffffffffffffffffffff1681565b6103b06107ab565b60006103ba6107bf565b600280549050841015156103cd57600080fd5b6002848154811015156103dc57fe5b9060005260206000209060020201604080519081016040529081600082018054600181600116156101000203166002900480601f01602080910402602001604051908101604052809291908181526020018280546001816001161561010002031660029004801561048e5780601f106104635761010080835404028352916020019161048e565b820191906000526020600020905b81548152906001019060200180831161047157829003601f168201915b505050505081526020016001820154815250509050806000015192508060200151915050915091565b60006104c282610615565b90506104ce8282610697565b5050565b6104da6107df565b6002805480602002602001604051908101604052809291908181526020016000905b828210156105da5783829060005260206000209060020201604080519081016040529081600082018054600181600116156101000203166002900480601f0160208091040260200160405190810160405280929190818152602001828054600181600116156101000203166002900480156105b85780601f1061058d576101008083540402835291602001916105b8565b820191906000526020600020905b81548152906001019060200180831161059b57829003601f168201915b50505050508152602001600182015481525050815260200190600101906104fc565b50505050905090565b6002818154811015156105f257fe5b906000526020600020906002020160009150905080600001908060010154905082565b600080826040518082805190602001908083835b60208310151561064e5780518252602082019150602081019050602083039250610629565b6001836020036101000a03801982511681845116808217855250505050505090500191505060405180910390206001900490506001548181151561068e57fe5b06915050919050565b60006001600280548060010182816106af91906107f3565b91600052602060002090600202016000604080519081016040528088815260200187815250909190915060008201518160000190805190602001906106f5929190610825565b50602082015181600101555050039050336003600083815260200190815260200160002060006101000a81548173ffffffffffffffffffffffffffffffffffffffff021916908373ffffffffffffffffffffffffffffffffffffffff160217905550600460003373ffffffffffffffffffffffffffffffffffffffff1673ffffffffffffffffffffffffffffffffffffffff16815260200190815260200160002060008154809291906001019190505550505050565b602060405190810160405280600081525090565b60408051908101604052806107d26108a5565b8152602001600081525090565b602060405190810160405280600081525090565b8154818355818115116108205760020281600202836000526020600020918201910161081f91906108b9565b5b505050565b828054600181600116156101000203166002900490600052602060002090601f016020900481019282601f1061086657805160ff1916838001178555610894565b82800160010185558215610894579182015b82811115610893578251825591602001919060010190610878565b5b5090506108a191906108f0565b5090565b602060405190810160405280600081525090565b6108ed91905b808211156108e957600080820160006108d89190610915565b6001820160009055506002016108bf565b5090565b90565b61091291905b8082111561090e5760008160009055506001016108f6565b5090565b90565b50805460018160011615610100020316600290046000825580601f1061093b575061095a565b601f01602090049060005260206000209081019061095991906108f0565b5b505600a165627a7a72305820c700b726ee11a65f26ebcebce46cb5b86b88f8e33d7f715797132e3644cc3f000029",
  "source": "pragma solidity ^0.4.18;\n\nimport 'zeppelin-solidity/contracts/token/StandardToken.sol';\n\ncontract ItemFactory {\n    \n    uint dnaDigits = 16;\n    uint dnaModulus = 10 ** dnaDigits;\n\n    // dna: 0123456789ABCDEF\n    //  0 - type: sword, staff, head, chest etc.\n    //  12 - strength: increases physical attack dmg\n    //  34 - dexterity: increases attack speed\n    //  56 - defense: decreases incoming damage\n    //  78 - speed: increases player speed\n    //  9A - wisdom: increases magic attack dmg\n    //  BC - vitality: increases health regen speed\n    //  DE - skill: skill that this item can use\n    struct Item {\n        string name;\n        uint dna;\n    }\n\n    Item[] public items;\n\n    mapping (uint => address) public itemToOwner;\n    mapping (address => uint) ownerItemCount;\n\n    function _createItem(string _name, uint _dna) private {\n        // create the new item and add it to the item list\n        uint id = items.push(Item(_name, _dna)) - 1;\n        // set the item's owner\n        itemToOwner[id] = msg.sender;\n        // increase the owner's item count\n        ownerItemCount[msg.sender] ++;\n    }\n\n    function _generateRandomDna(string _str) private view returns (uint) {\n        uint rand = uint(keccak256(_str));\n        return rand % dnaModulus;\n    }\n\n    function createRandomItem(string _name) public {\n        // player cannot generate more than 1 item\n        // require(ownerItemCount[msg.sender] == 0);\n        uint randDna = _generateRandomDna(_name);\n        _createItem(_name, randDna);\n    }\n\n    function getItem(uint _id) public view returns (\n        string name,\n        uint dna\n    ) {\n        // make sure the id is an actual item\n        require(_id < items.length);\n        // get the item\n        Item memory i = items[_id];\n        // return variables\n        name = i.name;\n        dna = i.dna;\n\n    }\n\n    function getAllItems() public view returns (\n        Item[]\n    ) {\n        return items;\n    }\n\n    function getItemCountForOwner() public view returns(uint itemCount) {\n        return ownerItemCount[msg.sender];\n    }\n}\n\n// Truffle Commands\n//   truffle develop\n//   ItemFactory.deployed().then(function(instance){return instance.createRandomItem.call(\"name\");}).then(function(value){return value});\n//   ItemFactory.deployed().then(function(instance){return instance.getItemCountForOwner();}).then(function(value){return value});",
  "sourcePath": "/Users/Zac/Documents/Code/GitHub/Ethereum/CryptoCombat/contracts/ItemFactory.sol",
  "compiler": {
    "name": "solc",
    "version": "0.4.18+commit.9cf6e910.Emscripten.clang"
  },
  "schemaVersion": "1.0.1",
  "updatedAt": "2018-01-03T00:57:21.821Z"
}