{
  "contractName": "ItemMinting",
  "abi": [
    {
      "constant": true,
      "inputs": [],
      "name": "cfoAddress",
      "outputs": [
        {
          "name": "",
          "type": "address"
        }
      ],
      "payable": false,
      "stateMutability": "view",
      "type": "function"
    },
    {
      "constant": true,
      "inputs": [],
      "name": "ceoAddress",
      "outputs": [
        {
          "name": "",
          "type": "address"
        }
      ],
      "payable": false,
      "stateMutability": "view",
      "type": "function"
    },
    {
      "constant": true,
      "inputs": [],
      "name": "getItemCountForOwner",
      "outputs": [
        {
          "name": "",
          "type": "uint256"
        }
      ],
      "payable": false,
      "stateMutability": "view",
      "type": "function"
    },
    {
      "constant": false,
      "inputs": [
        {
          "name": "_name",
          "type": "string"
        }
      ],
      "name": "createRandomItem",
      "outputs": [
        {
          "name": "",
          "type": "uint256"
        }
      ],
      "payable": false,
      "stateMutability": "nonpayable",
      "type": "function"
    },
    {
      "constant": true,
      "inputs": [],
      "name": "getAllItems",
      "outputs": [
        {
          "components": [
            {
              "name": "name",
              "type": "string"
            },
            {
              "name": "dna",
              "type": "uint256"
            }
          ],
          "name": "",
          "type": "tuple[]"
        }
      ],
      "payable": false,
      "stateMutability": "view",
      "type": "function"
    },
    {
      "constant": true,
      "inputs": [],
      "name": "getItemCount",
      "outputs": [
        {
          "name": "count",
          "type": "uint256"
        }
      ],
      "payable": false,
      "stateMutability": "view",
      "type": "function"
    },
    {
      "constant": true,
      "inputs": [],
      "name": "cooAddress",
      "outputs": [
        {
          "name": "",
          "type": "address"
        }
      ],
      "payable": false,
      "stateMutability": "view",
      "type": "function"
    },
    {
      "constant": true,
      "inputs": [
        {
          "name": "",
          "type": "uint256"
        }
      ],
      "name": "items",
      "outputs": [
        {
          "name": "name",
          "type": "string"
        },
        {
          "name": "dna",
          "type": "uint256"
        }
      ],
      "payable": false,
      "stateMutability": "view",
      "type": "function"
    },
    {
      "constant": true,
      "inputs": [
        {
          "name": "_id",
          "type": "uint256"
        }
      ],
      "name": "getItemInfo",
      "outputs": [
        {
          "name": "name",
          "type": "string"
        },
        {
          "name": "dna",
          "type": "uint256"
        }
      ],
      "payable": false,
      "stateMutability": "view",
      "type": "function"
    },
    {
      "constant": true,
      "inputs": [
        {
          "name": "",
          "type": "uint256"
        }
      ],
      "name": "itemIndexToOwner",
      "outputs": [
        {
          "name": "",
          "type": "address"
        }
      ],
      "payable": false,
      "stateMutability": "view",
      "type": "function"
    },
    {
      "anonymous": false,
      "inputs": [
        {
          "indexed": false,
          "name": "from",
          "type": "address"
        },
        {
          "indexed": false,
          "name": "to",
          "type": "address"
        },
        {
          "indexed": false,
          "name": "tokenId",
          "type": "uint256"
        }
      ],
      "name": "Transfer",
      "type": "event"
    }
  ],
  "bytecode": "0x60606040526010600355600354600a0a600455341561001d57600080fd5b610cb98061002c6000396000f3006060604052600436106100a4576000357c0100000000000000000000000000000000000000000000000000000000900463ffffffff1680630519ce79146100a95780630a0f8168146100fe57806316bddee5146101535780634b6302191461017c5780634ba1d6aa146101ed5780637749cf2314610252578063b047fb501461027b578063bfb231d2146102d0578063de7fe3e714610390578063fe9b1a8914610433575b600080fd5b34156100b457600080fd5b6100bc610496565b604051808273ffffffffffffffffffffffffffffffffffffffff1673ffffffffffffffffffffffffffffffffffffffff16815260200191505060405180910390f35b341561010957600080fd5b6101116104bc565b604051808273ffffffffffffffffffffffffffffffffffffffff1673ffffffffffffffffffffffffffffffffffffffff16815260200191505060405180910390f35b341561015e57600080fd5b6101666104e1565b6040518082815260200191505060405180910390f35b341561018757600080fd5b6101d7600480803590602001908201803590602001908080601f01602080910402602001604051908101604052809392919081815260200183838082843782019150505050505091905050610528565b6040518082815260200191505060405180910390f35b34156101f857600080fd5b61020061054f565b60405180806020018281038252838181518152602001915080516000925b81841015610241578284906020019060200201518152602001926001019261021e565b925050509250505060405180910390f35b341561025d57600080fd5b610265610660565b6040518082815260200191505060405180910390f35b341561028657600080fd5b61028e61066d565b604051808273ffffffffffffffffffffffffffffffffffffffff1673ffffffffffffffffffffffffffffffffffffffff16815260200191505060405180910390f35b34156102db57600080fd5b6102f16004808035906020019091905050610693565b60405180806020018381526020018281038252848181546001816001161561010002031660029004815260200191508054600181600116156101000203166002900480156103805780601f1061035557610100808354040283529160200191610380565b820191906000526020600020905b81548152906001019060200180831161036357829003601f168201915b5050935050505060405180910390f35b341561039b57600080fd5b6103b160048080359060200190919050506106c5565b6040518080602001838152602001828103825284818151815260200191508051906020019080838360005b838110156103f75780820151818401526020810190506103dc565b50505050905090810190601f1680156104245780820380516001836020036101000a031916815260200191505b50935050505060405180910390f35b341561043e57600080fd5b61045460048080359060200190919050506107d4565b604051808273ffffffffffffffffffffffffffffffffffffffff1673ffffffffffffffffffffffffffffffffffffffff16815260200191505060405180910390f35b600160009054906101000a900473ffffffffffffffffffffffffffffffffffffffff1681565b6000809054906101000a900473ffffffffffffffffffffffffffffffffffffffff1681565b6000600760003373ffffffffffffffffffffffffffffffffffffffff1673ffffffffffffffffffffffffffffffffffffffff16815260200190815260200160002054905090565b600080600061053684610807565b9150610543848333610889565b90508092505050919050565b610557610adb565b6005805480602002602001604051908101604052809291908181526020016000905b828210156106575783829060005260206000209060020201604080519081016040529081600082018054600181600116156101000203166002900480601f0160208091040260200160405190810160405280929190818152602001828054600181600116156101000203166002900480156106355780601f1061060a57610100808354040283529160200191610635565b820191906000526020600020905b81548152906001019060200180831161061857829003601f168201915b5050505050815260200160018201548152505081526020019060010190610579565b50505050905090565b6000600580549050905090565b600260009054906101000a900473ffffffffffffffffffffffffffffffffffffffff1681565b6005818154811015156106a257fe5b906000526020600020906002020160009150905080600001908060010154905082565b6106cd610aef565b60006106d7610b03565b600580549050841015156106ea57600080fd5b6005848154811015156106f957fe5b9060005260206000209060020201604080519081016040529081600082018054600181600116156101000203166002900480601f0160208091040260200160405190810160405280929190818152602001828054600181600116156101000203166002900480156107ab5780601f10610780576101008083540402835291602001916107ab565b820191906000526020600020905b81548152906001019060200180831161078e57829003601f168201915b505050505081526020016001820154815250509050806000015192508060200151915050915091565b60066020528060005260406000206000915054906101000a900473ffffffffffffffffffffffffffffffffffffffff1681565b600080826040518082805190602001908083835b602083101515610840578051825260208201915060208101905060208303925061081b565b6001836020036101000a03801982511681845116808217855250505050505090500191505060405180910390206001900490506004548181151561088057fe5b06915050919050565b6000806001600580548060010182816108a29190610b23565b9160005260206000209060020201600060408051908101604052808a815260200189815250909190915060008201518160000190805190602001906108e8929190610b55565b506020820151816001015550500390506109046000848361090f565b809150509392505050565b600760008373ffffffffffffffffffffffffffffffffffffffff1673ffffffffffffffffffffffffffffffffffffffff16815260200190815260200160002060008154809291906001019190505550816006600083815260200190815260200160002060006101000a81548173ffffffffffffffffffffffffffffffffffffffff021916908373ffffffffffffffffffffffffffffffffffffffff160217905550600073ffffffffffffffffffffffffffffffffffffffff168373ffffffffffffffffffffffffffffffffffffffff16141515610a3757600760008473ffffffffffffffffffffffffffffffffffffffff1673ffffffffffffffffffffffffffffffffffffffff16815260200190815260200160002060008154809291906001900391905055505b7fddf252ad1be2c89b69c2b068fc378daa952ba7f163c4a11628f55a4df523b3ef838383604051808473ffffffffffffffffffffffffffffffffffffffff1673ffffffffffffffffffffffffffffffffffffffff1681526020018373ffffffffffffffffffffffffffffffffffffffff1673ffffffffffffffffffffffffffffffffffffffff168152602001828152602001935050505060405180910390a1505050565b602060405190810160405280600081525090565b602060405190810160405280600081525090565b6040805190810160405280610b16610bd5565b8152602001600081525090565b815481835581811511610b5057600202816002028360005260206000209182019101610b4f9190610be9565b5b505050565b828054600181600116156101000203166002900490600052602060002090601f016020900481019282601f10610b9657805160ff1916838001178555610bc4565b82800160010185558215610bc4579182015b82811115610bc3578251825591602001919060010190610ba8565b5b509050610bd19190610c20565b5090565b602060405190810160405280600081525090565b610c1d91905b80821115610c195760008082016000610c089190610c45565b600182016000905550600201610bef565b5090565b90565b610c4291905b80821115610c3e576000816000905550600101610c26565b5090565b90565b50805460018160011615610100020316600290046000825580601f10610c6b5750610c8a565b601f016020900490600052602060002090810190610c899190610c20565b5b505600a165627a7a7230582064b7bf87312a1fd2f99acaad737ce960cd3542f90038c610f2ea948eb31be6e60029",
  "source": "pragma solidity ^0.4.18;\n\nimport './ItemBase.sol';\n\ncontract ItemMinting is ItemBase {\n\n    function _generateRandomDna(string _str) private view returns (uint) {\n        uint rand = uint(keccak256(_str));\n        return rand % dnaModulus;\n    }\n\n    function createRandomItem(string _name) public returns(uint) {\n        // player cannot generate more than 1 item\n        // require(ownerItemCount[msg.sender] == 0);\n        uint randDna = _generateRandomDna(_name);\n        uint newItemId = _createItem(_name, randDna, msg.sender);\n        return newItemId;\n    }\n}\n\n// Truffle Commands\n//   truffle develop\n//   ItemBase.deployed().then(function(instance){return instance.getAllItems.call();}).then(function(value){return value});\n//   ItemMinting.deployed().then(function(instance){return instance.createRandomItem.call(\"name\");}).then(function(value){return value});\n//   ItemFactory.deployed().then(function(instance){return instance.getItemCountForOwner();}).then(function(value){return value});",
  "sourcePath": "/Users/Zac/Documents/Code/GitHub/Ethereum/CryptoCombat/contracts/ItemMinting.sol",
  "compiler": {
    "name": "solc",
    "version": "0.4.18+commit.9cf6e910.Emscripten.clang"
  },
  "schemaVersion": "1.0.1",
  "updatedAt": "2018-01-03T21:52:24.949Z"
}