{
  "contractName": "ItemBase",
  "abi": [
    {
      "constant": true,
      "inputs": [],
      "name": "cfoAddress",
      "outputs": [
        {
          "name": "",
          "type": "address"
        }
      ],
      "payable": false,
      "stateMutability": "view",
      "type": "function"
    },
    {
      "constant": true,
      "inputs": [],
      "name": "ceoAddress",
      "outputs": [
        {
          "name": "",
          "type": "address"
        }
      ],
      "payable": false,
      "stateMutability": "view",
      "type": "function"
    },
    {
      "constant": true,
      "inputs": [],
      "name": "getAllItems",
      "outputs": [
        {
          "components": [
            {
              "name": "name",
              "type": "string"
            },
            {
              "name": "dna",
              "type": "uint256"
            }
          ],
          "name": "",
          "type": "tuple[]"
        }
      ],
      "payable": false,
      "stateMutability": "view",
      "type": "function"
    },
    {
      "constant": true,
      "inputs": [
        {
          "name": "",
          "type": "uint256"
        }
      ],
      "name": "itemIndexToApproved",
      "outputs": [
        {
          "name": "",
          "type": "address"
        }
      ],
      "payable": false,
      "stateMutability": "view",
      "type": "function"
    },
    {
      "constant": true,
      "inputs": [],
      "name": "cooAddress",
      "outputs": [
        {
          "name": "",
          "type": "address"
        }
      ],
      "payable": false,
      "stateMutability": "view",
      "type": "function"
    },
    {
      "constant": true,
      "inputs": [
        {
          "name": "",
          "type": "uint256"
        }
      ],
      "name": "items",
      "outputs": [
        {
          "name": "name",
          "type": "string"
        },
        {
          "name": "dna",
          "type": "uint256"
        }
      ],
      "payable": false,
      "stateMutability": "view",
      "type": "function"
    },
    {
      "constant": true,
      "inputs": [
        {
          "name": "_id",
          "type": "uint256"
        }
      ],
      "name": "getItemInfo",
      "outputs": [
        {
          "name": "name",
          "type": "string"
        },
        {
          "name": "dna",
          "type": "uint256"
        }
      ],
      "payable": false,
      "stateMutability": "view",
      "type": "function"
    },
    {
      "constant": true,
      "inputs": [
        {
          "name": "",
          "type": "uint256"
        }
      ],
      "name": "itemIndexToOwner",
      "outputs": [
        {
          "name": "",
          "type": "address"
        }
      ],
      "payable": false,
      "stateMutability": "view",
      "type": "function"
    },
    {
      "anonymous": false,
      "inputs": [
        {
          "indexed": false,
          "name": "from",
          "type": "address"
        },
        {
          "indexed": false,
          "name": "to",
          "type": "address"
        },
        {
          "indexed": false,
          "name": "tokenId",
          "type": "uint256"
        }
      ],
      "name": "Transfer",
      "type": "event"
    }
  ],
  "bytecode": "0x60606040526010600355600354600a0a600455341561001d57600080fd5b6107d18061002c6000396000f30060606040526004361061008e576000357c0100000000000000000000000000000000000000000000000000000000900463ffffffff1680630519ce79146100935780630a0f8168146100e85780634ba1d6aa1461013d57806388072700146101a2578063b047fb5014610205578063bfb231d21461025a578063de7fe3e71461031a578063fe9b1a89146103bd575b600080fd5b341561009e57600080fd5b6100a6610420565b604051808273ffffffffffffffffffffffffffffffffffffffff1673ffffffffffffffffffffffffffffffffffffffff16815260200191505060405180910390f35b34156100f357600080fd5b6100fb610446565b604051808273ffffffffffffffffffffffffffffffffffffffff1673ffffffffffffffffffffffffffffffffffffffff16815260200191505060405180910390f35b341561014857600080fd5b61015061046b565b60405180806020018281038252838181518152602001915080516000925b81841015610191578284906020019060200201518152602001926001019261016e565b925050509250505060405180910390f35b34156101ad57600080fd5b6101c3600480803590602001909190505061057c565b604051808273ffffffffffffffffffffffffffffffffffffffff1673ffffffffffffffffffffffffffffffffffffffff16815260200191505060405180910390f35b341561021057600080fd5b6102186105af565b604051808273ffffffffffffffffffffffffffffffffffffffff1673ffffffffffffffffffffffffffffffffffffffff16815260200191505060405180910390f35b341561026557600080fd5b61027b60048080359060200190919050506105d5565b604051808060200183815260200182810382528481815460018160011615610100020316600290048152602001915080546001816001161561010002031660029004801561030a5780601f106102df5761010080835404028352916020019161030a565b820191906000526020600020905b8154815290600101906020018083116102ed57829003601f168201915b5050935050505060405180910390f35b341561032557600080fd5b61033b6004808035906020019091905050610607565b6040518080602001838152602001828103825284818151815260200191508051906020019080838360005b83811015610381578082015181840152602081019050610366565b50505050905090810190601f1680156103ae5780820380516001836020036101000a031916815260200191505b50935050505060405180910390f35b34156103c857600080fd5b6103de6004808035906020019091905050610716565b604051808273ffffffffffffffffffffffffffffffffffffffff1673ffffffffffffffffffffffffffffffffffffffff16815260200191505060405180910390f35b600160009054906101000a900473ffffffffffffffffffffffffffffffffffffffff1681565b6000809054906101000a900473ffffffffffffffffffffffffffffffffffffffff1681565b610473610749565b6005805480602002602001604051908101604052809291908181526020016000905b828210156105735783829060005260206000209060020201604080519081016040529081600082018054600181600116156101000203166002900480601f0160208091040260200160405190810160405280929190818152602001828054600181600116156101000203166002900480156105515780601f1061052657610100808354040283529160200191610551565b820191906000526020600020905b81548152906001019060200180831161053457829003601f168201915b5050505050815260200160018201548152505081526020019060010190610495565b50505050905090565b60086020528060005260406000206000915054906101000a900473ffffffffffffffffffffffffffffffffffffffff1681565b600260009054906101000a900473ffffffffffffffffffffffffffffffffffffffff1681565b6005818154811015156105e457fe5b906000526020600020906002020160009150905080600001908060010154905082565b61060f61075d565b6000610619610771565b6005805490508410151561062c57600080fd5b60058481548110151561063b57fe5b9060005260206000209060020201604080519081016040529081600082018054600181600116156101000203166002900480601f0160208091040260200160405190810160405280929190818152602001828054600181600116156101000203166002900480156106ed5780601f106106c2576101008083540402835291602001916106ed565b820191906000526020600020905b8154815290600101906020018083116106d057829003601f168201915b505050505081526020016001820154815250509050806000015192508060200151915050915091565b60066020528060005260406000206000915054906101000a900473ffffffffffffffffffffffffffffffffffffffff1681565b602060405190810160405280600081525090565b602060405190810160405280600081525090565b6040805190810160405280610784610791565b8152602001600081525090565b6020604051908101604052806000815250905600a165627a7a72305820ea26418007b83290f1400b525ae51e13e3d0e7d8ad01d201d34f6cd964962e1b0029",
  "source": "pragma solidity ^0.4.18;\n\nimport './ItemAccessControl.sol';\n\n// This is where we define the most fundamental code shared throughout the core\n//   functionality. This includes our main data storage\ncontract ItemBase is ItemAccessControl {\n    /*** EVENTS ***/\n\n    event Transfer(address from, address to, uint256 tokenId);\n    //event Birth(address owner, uint256 itemId, uint256 genes);\n\n    /*** DATA TYPES ***/\n\n    // dna: 0123456789ABCDEF\n    //  0 - type: sword, staff, head, chest etc.\n    //  12 - strength: increases physical attack dmg\n    //  34 - dexterity: increases attack speed\n    //  56 - defense: decreases incoming damage\n    //  78 - speed: increases player speed\n    //  9A - wisdom: increases magic attack dmg\n    //  BC - vitality: increases health regen speed\n    //  DE - skill: skill that this item can use\n    struct Item {\n        string name;\n        uint dna;\n    }\n\n    /*** CONSTANTS ***/\n\n    uint dnaDigits = 16;\n    uint dnaModulus = 10 ** dnaDigits;\n\n    // Array containing Item struct for all items in existence.\n    Item[] public items;\n\n    // item index to an owner's addres\n    mapping (uint => address) public itemIndexToOwner;\n    // count of how many token's an onwer has\n    mapping (address => uint) ownershipTokenCount;\n    // Mapping of an item's index to an address that has been approved\n    //   to call TransferFrom()\n    mapping (uint => address) public itemIndexToApproved;\n\n    function _transfer(address _from, address _to, uint _tokenId) internal {\n        ownershipTokenCount[_to] ++;\n        // transfer ownership\n        itemIndexToOwner[_tokenId] = _to;\n        // When creating new kittens, _from is 0x0, but we can't account that address\n        if (_from != address(0)) {\n            ownershipTokenCount[_from] --;\n            // clear any previouslt approved ownership exchange\n            delete itemIndexToApproved[_tokenId];\n        }\n        //Emit the transfer event.\n        Transfer(_from, _to, _tokenId);\n    }\n\n    function _createItem(string _name, uint _dna, address _owner) internal returns(uint) {\n\n        Item memory _item = Item({\n            name: _name,\n            dna: _dna\n        });\n        // create the new item and add it to the item list\n        uint newItemId = items.push(_item) - 1;\n        \n        // Assign ownership and emit the Transfer event\n        _transfer(0, _owner, newItemId);\n\n        return newItemId;\n    }\n\n    function getItemInfo(uint _id) public view returns (\n        string name,\n        uint dna\n    ) {\n        // make sure the id is an actual item\n        require(_id < items.length);\n        // get the item\n        Item memory i = items[_id];\n        // return variables\n        name = i.name;\n        dna = i.dna;\n    }\n\n    function getAllItems() public view returns (\n        Item[]\n    ) {\n        return items;\n    }\n    \n}",
  "sourcePath": "/Users/Zac/Documents/Code/GitHub/Ethereum/CryptoCombat/contracts/ItemBase.sol",
  "compiler": {
    "name": "solc",
    "version": "0.4.18+commit.9cf6e910.Emscripten.clang"
  },
  "schemaVersion": "1.0.1",
  "updatedAt": "2018-01-03T01:02:17.823Z"
}